:040000006CEF0CF0A5
:101000000043414C43554C41544F522052454144BA
:10101000590047455454494E4720202020594F55E8
:031020005200007B
:101024006E0E186E2B0E116E2FEC0CF0E5EC0BF01F
:101034000009D8A4FBD7000E7EEC0BF0120E036E51
:10104400100E046E02EC0CF0400E7EEC0BF0010E60
:10105400036E100E046E02EC0CF0000E136E000E04
:10106400126E13BE06D0135012E1140E125CD8B0E7
:101074000ED0040E0E6E2C0E0D6EAC0EE82EFED7A6
:101084000D2EFCD70E2EFAD7124A132AEAD7010ED8
:10109400C6EC0BF054EC0CF0000E7EEC0BF00E0ED4
:1010A400C6EC0BF049EC0CF0186E1850A7EC0BF0E2
:1010B40018506CEC0AF001C014F002C015F0430E95
:1010C4001818D8A407D0010EC6EC0BF0000E7EEC65
:1010D4000BF0E5D714501510D8B42CD01404151007
:1010E400D8B428D0020E14181510D8B423D0030E87
:1010F40014181510D8B41ED0040E14181510D8B432
:1011040019D0050E14181510D8B414D0060E1418DE
:101114001510D8B40FD0070E14181510D8B40AD06F
:10112400080E14181510D8B405D0090E141815108B
:10113400D8A4B5D749EC0CF0186E1850A7EC0BF0F6
:1011440018C011F02F0E1818D8B40CD0580E181857
:10115400D8B408D02B0E1818D8B404D02D0E1818F3
:10116400D8A49DD749EC0CF0186E1850A7EC0BF0DE
:1011740018506CEC0AF001C016F002C017F01650BB
:101184001710D8B42CD016041710D8B428D0020ED7
:1011940016181710D8B423D0030E16181710D8B485
:1011A4001ED0040E16181710D8B419D0050E161830
:1011B4001710D8B414D0060E16181710D8B40FD0C0
:1011C400070E16181710D8B40AD0080E16181710E0
:1011D400D8B405D0090E16181710D8A460D749EC56
:1011E4000CF0186E1850A7EC0BF03D0E1818D8B47C
:1011F40041D055D714C001F015C002F016C003F059
:1012040017C004F011EC0BF001C00FF002C010F095
:101214000FC009F010C00AF053EC0BF040D714C013
:1012240001F015C002F016C003F017C004F01CEC66
:101234000CF001C009F002C00AF053EC0BF02FD7F8
:1012440016501424096E175015200A6E53EC0BF037
:1012540026D716C00DF017C00EF00D1E0E1E0D4A37
:101264000E2A14500D24096E15500E200A6E53ECEC
:101274000BF015D711502B0AD8B4E2D7060AD8B40C
:10128400E8D7020AD8B4B6D7770AD8B4C8D707D7EC
:101294008A908A828A848A8681B80FD0040E026E6C
:1012A4002C0E016EAC0EE82EFED7012EFCD7022EBA
:1012B400FAD781A8FED7370E120081BA0FD0040ED8
:1012C400026E2C0E016EAC0EE82EFED7012EFCD75A
:1012D400022EFAD781AAFED7380E120081BC0FD095
:1012E400040E026E2C0E016EAC0EE82EFED7012EFB
:1012F400FCD7022EFAD781ACFED7390E120081BE7C
:101304000FD0040E026E2C0E016EAC0EE82EFED72A
:10131400012EFCD7022EFAD781AEFED72F0E120073
:101324008A808A928A848A8681B80FD0040E026EDB
:101334002C0E016EAC0EE82EFED7012EFCD7022E29
:10134400FAD781A8FED7340E120081BA0FD0040E4A
:10135400026E2C0E016EAC0EE82EFED7012EFCD7C9
:10136400022EFAD781AAFED7350E120081BC0FD007
:10137400040E026E2C0E016EAC0EE82EFED7012E6A
:10138400FCD7022EFAD781ACFED7360E120081BEEE
:101394000FD0040E026E2C0E016EAC0EE82EFED79A
:1013A400012EFCD7022EFAD781AEFED7580E1200BA
:1013B4008A808A828A948A8681B80FD0040E026E4B
:1013C4002C0E016EAC0EE82EFED7012EFCD7022E99
:1013D400FAD781A8FED7310E120081BA0FD0040EBD
:1013E400026E2C0E016EAC0EE82EFED7012EFCD739
:1013F400022EFAD781AAFED7320E120081BC0FD07A
:10140400040E026E2C0E016EAC0EE82EFED7012ED9
:10141400FCD7022EFAD781ACFED7330E120081BE60
:101424000FD0040E026E2C0E016EAC0EE82EFED709
:10143400012EFCD7022EFAD781AEFED72D0E120054
:101444008A808A828A848A9681B80FD0040E026EBA
:101454002C0E016EAC0EE82EFED7012EFCD7022E08
:10146400FAD781A8FED7430E120081BA0FD0040E1A
:10147400026E2C0E016EAC0EE82EFED7012EFCD7A8
:10148400022EFAD781AAFED7300E120081BC0FD0EB
:10149400040E026E2C0E016EAC0EE82EFED7012E49
:1014A400FCD7022EFAD781ACFED73D0E120081BEC6
:1014B4000FD0040E026E2C0E016EAC0EE82EFED779
:1014C400012EFCD7022EFAD781AEFED72B0E1200C6
:1014D4006E0E1200036E000E056E000E046E29D00F
:1014E400000E056E000E23D0000E056E010E1FD0F7
:1014F400000E056E020E1BD0000E056E030E17D0F3
:10150400000E056E040E13D0000E056E050E0FD0EE
:10151400000E056E060E0BD0000E056E070E07D0EA
:10152400000E056E080E03D0000E056E090E046E43
:101534001FD00350300AD8B4D3D7010AD8B4D4D7B3
:10154400030AD8B4D5D7010AD8B4D6D7070AD8B471
:10155400D7D7010AD8B4D8D7030AD8B4D9D7010A3F
:10156400D8B4DAD70F0AD8B4DBD7010AD8B4DCD799
:1015740004C001F005C002F01200066EF00E8216DF
:10158400F00E9416949C949A94988B9C8B9A8B98B6
:1015940073EC0CF0300EC6EC0BF0050E3EEC0CF0C8
:1015A400300EC6EC0BF0010E3EEC0CF0320EC6EC25
:1015B4000BF0E5EC0BF00009D8A4FBD7E5EC0BF03D
:1015C4000009D8A4FBD70650C6EC0BF0E5EC0BF0F1
:1015D4000009D8A4FBD7080EC6EC0BF0E5EC0BF021
:1015E4000009D8A4FBD70F0EC6EC0BF0E5EC0BF00A
:1015F4000009D8A4FBD7010EC6EC0BF0E5EC0BF008
:101604000009D8A4FBD7040EC6EC0BF0E5EC0BF0F4
:101614000009D8A4FBD7800E7EEC0BF01200000E5C
:10162400066E04AE06D0036C041ED8B0042A010E64
:10163400066E02AE06D0016C021ED8B0022A010E5C
:10164400061A000E086E000E076E03500410D8B47C
:101654001CD0010E056E04D0D89003360436052A3A
:1016640004AEFAD7D890073608360350015C04500C
:101674000258D8A005D00350015E0450025A0780D6
:10168400D89004320332052EEDD70650D8B404D0D6
:10169400076C081ED8B0082A07C001F008C002F081
:1016A4001200000E0B6E000E0C6E0AAE07D0096C11
:1016B4000A1ED8B00A2A2D0EA7EC0BF009C001F0BF
:1016C4000AC002F0000E046E0A0E036E11EC0BF059
:1016D40001500C6E0C50D8B404D00C50300FA7EC51
:1016E4000BF00C500A0DF350000809240B6E0B503C
:1016F400300FA7EC0BF01200056EF00E9416F00EEE
:1017040082160550026E036A028E040E046E0334C0
:1017140003320232042EFBD702500F0B82128B9C31
:101724008B9A77EC0CF08B8877EC0CF08B98F00E9E
:10173400821605500F0B821277EC0CF08B8877EC35
:101744000CF08B980F0E94121200026EF00E941689
:10175400F00E821602380F0B0F0B82128B8A8B9CB1
:1017640077EC0CF08B8877EC0CF08B98F00E8216EB
:1017740002500F0B821277EC0CF08B8877EC0CF094
:101784008B980F0E94121200026EF00E9416F00E47
:10179400821602380F0B0F0B82128B9C8B9A77ECFC
:1017A4000CF08B8877EC0CF08B98F00E82160250BC
:1017B4000F0B821277EC0CF08B8877EC0CF08B9883
:1017C4000F0E941212008B8C8B9A77EC0CF08B8892
:1017D40077EC0CF082A60AD08B9877EC0CF08B880F
:1017E40077EC0CF08B988B9C010E12008B9877ECA5
:1017F4000CF08B8877EC0CF08B988B9C000E12000D
:101804000FD0E5EC0BF00009D8A4FBD703C0F6FF1A
:1018140004C0F7FF0800F550A7EC0BF0034A042AB4
:1018240003C0F6FF04C0F7FF0800F5500009D8B460
:101834001200E7D701500302F3CF05F0F4CF06F00E
:1018440001500402F350062602500302F350062608
:1018540005C001F006C002F01200280EBFEC0AF029
:10186400E5EC0BF00009D8A4FBD7060EC6EC0BF090
:101874000C0EC6EC0BF01200026E0D0E016EFC0E87
:10188400E82EFED7012EFCD7022EF7D712006E0EDB
:1018940002D04AEC09F0036E6E0E0318D8B4F9D7DF
:1018A40003501200000E8A6E000E816EF00E936ECD
:1018B400F19E1200016EC80E00D0E82EFDD7012E55
:1018C400FAD71200016E030EE82EFED700F0012EA7
:1018D400FAD712001A6A196A000EF86E000112EFA4
:1018E40008F01E0E5CEC0CF01200140E64EC0CF00C
:0218F4001200E0
:020000040020DA
:08000000FFFFFFFFFFFFFFFF00
:020000040030CA
:0E000000FF021F1EFF0181FF0FC00FE00F4027
:00000001FF
